{
  "_format": "hh-sol-artifact-1",
  "contractName": "Microloan",
  "sourceName": "contracts/microloan_dapp.sol",
  "abi": [
    {
      "inputs": [],
      "stateMutability": "nonpayable",
      "type": "constructor"
    },
    {
      "anonymous": false,
      "inputs": [
        {
          "indexed": false,
          "internalType": "address",
          "name": "lender",
          "type": "address"
        },
        {
          "indexed": false,
          "internalType": "uint256",
          "name": "amount",
          "type": "uint256"
        }
      ],
      "name": "Deposit",
      "type": "event"
    },
    {
      "anonymous": false,
      "inputs": [
        {
          "indexed": false,
          "internalType": "uint256",
          "name": "loanId",
          "type": "uint256"
        },
        {
          "indexed": false,
          "internalType": "address",
          "name": "lender",
          "type": "address"
        }
      ],
      "name": "LoanFunded",
      "type": "event"
    },
    {
      "anonymous": false,
      "inputs": [
        {
          "indexed": false,
          "internalType": "uint256",
          "name": "loanId",
          "type": "uint256"
        },
        {
          "indexed": false,
          "internalType": "address",
          "name": "borrower",
          "type": "address"
        }
      ],
      "name": "LoanRepaid",
      "type": "event"
    },
    {
      "anonymous": false,
      "inputs": [
        {
          "indexed": false,
          "internalType": "uint256",
          "name": "loanId",
          "type": "uint256"
        },
        {
          "indexed": false,
          "internalType": "address",
          "name": "borrower",
          "type": "address"
        },
        {
          "indexed": false,
          "internalType": "uint256",
          "name": "amount",
          "type": "uint256"
        },
        {
          "indexed": false,
          "internalType": "uint256",
          "name": "interestRate",
          "type": "uint256"
        },
        {
          "indexed": false,
          "internalType": "uint256",
          "name": "repaymentPeriod",
          "type": "uint256"
        }
      ],
      "name": "LoanRequested",
      "type": "event"
    },
    {
      "anonymous": false,
      "inputs": [
        {
          "indexed": false,
          "internalType": "address",
          "name": "lender",
          "type": "address"
        },
        {
          "indexed": false,
          "internalType": "uint256",
          "name": "amount",
          "type": "uint256"
        }
      ],
      "name": "Withdraw",
      "type": "event"
    },
    {
      "inputs": [
        {
          "internalType": "address",
          "name": "",
          "type": "address"
        }
      ],
      "name": "balances",
      "outputs": [
        {
          "internalType": "uint256",
          "name": "",
          "type": "uint256"
        }
      ],
      "stateMutability": "view",
      "type": "function"
    },
    {
      "inputs": [],
      "name": "deposit",
      "outputs": [],
      "stateMutability": "payable",
      "type": "function"
    },
    {
      "inputs": [
        {
          "internalType": "uint256",
          "name": "_loanId",
          "type": "uint256"
        }
      ],
      "name": "fundLoan",
      "outputs": [],
      "stateMutability": "nonpayable",
      "type": "function"
    },
    {
      "inputs": [],
      "name": "getAllLoanRequests",
      "outputs": [
        {
          "internalType": "uint256[]",
          "name": "loanIds",
          "type": "uint256[]"
        },
        {
          "internalType": "uint256[]",
          "name": "amounts",
          "type": "uint256[]"
        },
        {
          "internalType": "uint256[]",
          "name": "interestRates",
          "type": "uint256[]"
        },
        {
          "internalType": "uint256[]",
          "name": "repaymentPeriods",
          "type": "uint256[]"
        },
        {
          "internalType": "uint256[]",
          "name": "createdAts",
          "type": "uint256[]"
        },
        {
          "internalType": "address[]",
          "name": "borrowers",
          "type": "address[]"
        },
        {
          "internalType": "bool[]",
          "name": "isFundeds",
          "type": "bool[]"
        },
        {
          "internalType": "bool[]",
          "name": "isRepaids",
          "type": "bool[]"
        }
      ],
      "stateMutability": "view",
      "type": "function"
    },
    {
      "inputs": [],
      "name": "getMyLoans",
      "outputs": [
        {
          "internalType": "uint256[]",
          "name": "ids",
          "type": "uint256[]"
        },
        {
          "internalType": "uint256[]",
          "name": "amounts",
          "type": "uint256[]"
        },
        {
          "internalType": "uint256[]",
          "name": "interestRates",
          "type": "uint256[]"
        },
        {
          "internalType": "bool[]",
          "name": "isFundeds",
          "type": "bool[]"
        },
        {
          "internalType": "bool[]",
          "name": "isRepaids",
          "type": "bool[]"
        }
      ],
      "stateMutability": "view",
      "type": "function"
    },
    {
      "inputs": [
        {
          "internalType": "uint256",
          "name": "_loanId",
          "type": "uint256"
        }
      ],
      "name": "getRepaymentAmount",
      "outputs": [
        {
          "internalType": "uint256",
          "name": "",
          "type": "uint256"
        }
      ],
      "stateMutability": "view",
      "type": "function"
    },
    {
      "inputs": [
        {
          "internalType": "uint256",
          "name": "_loanId",
          "type": "uint256"
        }
      ],
      "name": "isLoanOverdue",
      "outputs": [
        {
          "internalType": "bool",
          "name": "",
          "type": "bool"
        }
      ],
      "stateMutability": "view",
      "type": "function"
    },
    {
      "inputs": [],
      "name": "loanCounter",
      "outputs": [
        {
          "internalType": "uint256",
          "name": "",
          "type": "uint256"
        }
      ],
      "stateMutability": "view",
      "type": "function"
    },
    {
      "inputs": [
        {
          "internalType": "uint256",
          "name": "",
          "type": "uint256"
        }
      ],
      "name": "loans",
      "outputs": [
        {
          "internalType": "uint256",
          "name": "amount",
          "type": "uint256"
        },
        {
          "internalType": "uint256",
          "name": "interestRate",
          "type": "uint256"
        },
        {
          "internalType": "uint256",
          "name": "repaymentPeriod",
          "type": "uint256"
        },
        {
          "internalType": "uint256",
          "name": "createdAt",
          "type": "uint256"
        },
        {
          "internalType": "address payable",
          "name": "borrower",
          "type": "address"
        },
        {
          "internalType": "address payable",
          "name": "lender",
          "type": "address"
        },
        {
          "internalType": "bool",
          "name": "isRepaid",
          "type": "bool"
        },
        {
          "internalType": "bool",
          "name": "isFunded",
          "type": "bool"
        }
      ],
      "stateMutability": "view",
      "type": "function"
    },
    {
      "inputs": [],
      "name": "owner",
      "outputs": [
        {
          "internalType": "address",
          "name": "",
          "type": "address"
        }
      ],
      "stateMutability": "view",
      "type": "function"
    },
    {
      "inputs": [
        {
          "internalType": "uint256",
          "name": "_loanId",
          "type": "uint256"
        }
      ],
      "name": "repayLoan",
      "outputs": [],
      "stateMutability": "payable",
      "type": "function"
    },
    {
      "inputs": [
        {
          "internalType": "uint256",
          "name": "_amount",
          "type": "uint256"
        },
        {
          "internalType": "uint256",
          "name": "_interestRate",
          "type": "uint256"
        },
        {
          "internalType": "uint256",
          "name": "_repaymentPeriod",
          "type": "uint256"
        }
      ],
      "name": "requestLoan",
      "outputs": [],
      "stateMutability": "nonpayable",
      "type": "function"
    },
    {
      "inputs": [
        {
          "internalType": "uint256",
          "name": "amount",
          "type": "uint256"
        }
      ],
      "name": "withdraw",
      "outputs": [],
      "stateMutability": "nonpayable",
      "type": "function"
    }
  ],
  "bytecode": "0x6080604052348015600f57600080fd5b50336000806101000a81548173ffffffffffffffffffffffffffffffffffffffff021916908373ffffffffffffffffffffffffffffffffffffffff1602179055506129038061005f6000396000f3fe6080604052600436106100c25760003560e01c8063846b909a1161007f578063c3254d9711610059578063c3254d9714610274578063d0e30db0146102a3578063e1ec3c68146102ad578063edadbbfe146102f1576100c2565b8063846b909a146102045780638da5cb5b1461022d578063ab7b1c8914610258576100c2565b80630c9babc3146100c75780632210532b146100f957806327e235e3146101365780632e1a7d4d1461017357806334d9289e1461019c5780633b498602146101c7575b600080fd5b3480156100d357600080fd5b506100dc61031a565b6040516100f0989796959493929190611cd7565b60405180910390f35b34801561010557600080fd5b50610120600480360381019061011b9190611dbe565b610773565b60405161012d9190611dfa565b60405180910390f35b34801561014257600080fd5b5061015d60048036038101906101589190611e41565b610816565b60405161016a9190611dfa565b60405180910390f35b34801561017f57600080fd5b5061019a60048036038101906101959190611dbe565b61082e565b005b3480156101a857600080fd5b506101b1610a7d565b6040516101be9190611dfa565b60405180910390f35b3480156101d357600080fd5b506101ee60048036038101906101e99190611dbe565b610a83565b6040516101fb9190611e7d565b60405180910390f35b34801561021057600080fd5b5061022b60048036038101906102269190611dbe565b610b49565b005b34801561023957600080fd5b50610242610ee5565b60405161024f9190611ea7565b60405180910390f35b610272600480360381019061026d9190611dbe565b610f09565b005b34801561028057600080fd5b506102896111bb565b60405161029a959493929190611ec2565b60405180910390f35b6102ab61159b565b005b3480156102b957600080fd5b506102d460048036038101906102cf9190611dbe565b6116fd565b6040516102e8989796959493929190611f59565b60405180910390f35b3480156102fd57600080fd5b5061031860048036038101906103139190611fd7565b61179f565b005b60608060608060608060608060035467ffffffffffffffff8111156103425761034161202a565b5b6040519080825280602002602001820160405280156103705781602001602082028036833780820191505090505b50975060035467ffffffffffffffff81111561038f5761038e61202a565b5b6040519080825280602002602001820160405280156103bd5781602001602082028036833780820191505090505b50965060035467ffffffffffffffff8111156103dc576103db61202a565b5b60405190808252806020026020018201604052801561040a5781602001602082028036833780820191505090505b50955060035467ffffffffffffffff8111156104295761042861202a565b5b6040519080825280602002602001820160405280156104575781602001602082028036833780820191505090505b50945060035467ffffffffffffffff8111156104765761047561202a565b5b6040519080825280602002602001820160405280156104a45781602001602082028036833780820191505090505b50935060035467ffffffffffffffff8111156104c3576104c261202a565b5b6040519080825280602002602001820160405280156104f15781602001602082028036833780820191505090505b50925060035467ffffffffffffffff8111156105105761050f61202a565b5b60405190808252806020026020018201604052801561053e5781602001602082028036833780820191505090505b50915060035467ffffffffffffffff81111561055d5761055c61202a565b5b60405190808252806020026020018201604052801561058b5781602001602082028036833780820191505090505b50905060005b600354811015610768576000600160006001846105ae9190612088565b815260200190815260200160002090506001826105cb9190612088565b8a83815181106105de576105dd6120bc565b5b6020026020010181815250508060000154898381518110610602576106016120bc565b5b6020026020010181815250508060010154888381518110610626576106256120bc565b5b602002602001018181525050806002015487838151811061064a576106496120bc565b5b602002602001018181525050806003015486838151811061066e5761066d6120bc565b5b6020026020010181815250508060040160009054906101000a900473ffffffffffffffffffffffffffffffffffffffff168583815181106106b2576106b16120bc565b5b602002602001019073ffffffffffffffffffffffffffffffffffffffff16908173ffffffffffffffffffffffffffffffffffffffff16815250508060050160159054906101000a900460ff16848381518110610711576107106120bc565b5b6020026020010190151590811515815250508060050160149054906101000a900460ff16838381518110610748576107476120bc565b5b602002602001019015159081151581525050508080600101915050610591565b509091929394959697565b60008160008111801561078857506003548111155b6107c7576040517f08c379a00000000000000000000000000000000000000000000000000000000081526004016107be90612148565b60405180910390fd5b60006001600085815260200190815260200160002090506064816001015482600001546107f49190612168565b6107fe91906121d9565b816000015461080d9190612088565b92505050919050565b60026020528060005260406000206000915090505481565b60008054906101000a900473ffffffffffffffffffffffffffffffffffffffff1673ffffffffffffffffffffffffffffffffffffffff163373ffffffffffffffffffffffffffffffffffffffff16146108bc576040517f08c379a00000000000000000000000000000000000000000000000000000000081526004016108b39061227c565b60405180910390fd5b80600260003373ffffffffffffffffffffffffffffffffffffffff1673ffffffffffffffffffffffffffffffffffffffff16815260200190815260200160002054101561093e576040517f08c379a0000000000000000000000000000000000000000000000000000000008152600401610935906122e8565b60405180910390fd5b80600260003373ffffffffffffffffffffffffffffffffffffffff1673ffffffffffffffffffffffffffffffffffffffff168152602001908152602001600020600082825461098d9190612308565b9250508190555060003373ffffffffffffffffffffffffffffffffffffffff16826040516109ba9061236d565b60006040518083038185875af1925050503d80600081146109f7576040519150601f19603f3d011682016040523d82523d6000602084013e6109fc565b606091505b5050905080610a40576040517f08c379a0000000000000000000000000000000000000000000000000000000008152600401610a37906123ce565b60405180910390fd5b7f884edad9ce6fa2440d8a54cc123490eb96d2768479d49ff9c7366125a94243643383604051610a719291906123ee565b60405180910390a15050565b60035481565b600081600081118015610a9857506003548111155b610ad7576040517f08c379a0000000000000000000000000000000000000000000000000000000008152600401610ace90612148565b60405180910390fd5b60006001600085815260200190815260200160002090508060050160159054906101000a900460ff161580610b1a57508060050160149054906101000a900460ff165b15610b29576000925050610b43565b80600201548160030154610b3d9190612088565b42119250505b50919050565b60008054906101000a900473ffffffffffffffffffffffffffffffffffffffff1673ffffffffffffffffffffffffffffffffffffffff163373ffffffffffffffffffffffffffffffffffffffff1614610bd7576040517f08c379a0000000000000000000000000000000000000000000000000000000008152600401610bce9061227c565b60405180910390fd5b80600081118015610bea57506003548111155b610c29576040517f08c379a0000000000000000000000000000000000000000000000000000000008152600401610c2090612148565b60405180910390fd5b60006001600084815260200190815260200160002090508060050160159054906101000a900460ff1615610c92576040517f08c379a0000000000000000000000000000000000000000000000000000000008152600401610c8990612463565b60405180910390fd5b600260003373ffffffffffffffffffffffffffffffffffffffff1673ffffffffffffffffffffffffffffffffffffffff1681526020019081526020016000205481600001541115610d18576040517f08c379a0000000000000000000000000000000000000000000000000000000008152600401610d0f906124cf565b60405180910390fd5b8060000154600260003373ffffffffffffffffffffffffffffffffffffffff1673ffffffffffffffffffffffffffffffffffffffff1681526020019081526020016000206000828254610d6b9190612308565b92505081905550338160050160006101000a81548173ffffffffffffffffffffffffffffffffffffffff021916908373ffffffffffffffffffffffffffffffffffffffff16021790555060018160050160156101000a81548160ff02191690831515021790555060008160040160009054906101000a900473ffffffffffffffffffffffffffffffffffffffff1673ffffffffffffffffffffffffffffffffffffffff168260000154604051610e209061236d565b60006040518083038185875af1925050503d8060008114610e5d576040519150601f19603f3d011682016040523d82523d6000602084013e610e62565b606091505b5050905080610ea6576040517f08c379a0000000000000000000000000000000000000000000000000000000008152600401610e9d9061253b565b60405180910390fd5b7f15feab5d3eb17171632762cf769709a315dd15f487a556c0dfb8a259c8f186cc8433604051610ed792919061255b565b60405180910390a150505050565b60008054906101000a900473ffffffffffffffffffffffffffffffffffffffff1681565b80600081118015610f1c57506003548111155b610f5b576040517f08c379a0000000000000000000000000000000000000000000000000000000008152600401610f5290612148565b60405180910390fd5b60006001600084815260200190815260200160002090508060050160159054906101000a900460ff168015610f9f57508060050160149054906101000a900460ff16155b610fde576040517f08c379a0000000000000000000000000000000000000000000000000000000008152600401610fd5906125d0565b60405180910390fd5b8060040160009054906101000a900473ffffffffffffffffffffffffffffffffffffffff1673ffffffffffffffffffffffffffffffffffffffff163373ffffffffffffffffffffffffffffffffffffffff1614611070576040517f08c379a00000000000000000000000000000000000000000000000000000000081526004016110679061263c565b60405180910390fd5b60006064826001015483600001546110889190612168565b61109291906121d9565b82600001546110a19190612088565b90508034146110e5576040517f08c379a00000000000000000000000000000000000000000000000000000000081526004016110dc906126a8565b60405180910390fd5b60018260050160146101000a81548160ff02191690831515021790555034600260008460050160009054906101000a900473ffffffffffffffffffffffffffffffffffffffff1673ffffffffffffffffffffffffffffffffffffffff1673ffffffffffffffffffffffffffffffffffffffff16815260200190815260200160002060008282546111759190612088565b925050819055507fe69d7686a8bc68278b8c5419579f91716b3ef2ac2fac0d8cf80b8011f8f458a484336040516111ad92919061255b565b60405180910390a150505050565b6060806060806060600080600190505b600354811161125f573373ffffffffffffffffffffffffffffffffffffffff166001600083815260200190815260200160002060040160009054906101000a900473ffffffffffffffffffffffffffffffffffffffff1673ffffffffffffffffffffffffffffffffffffffff160361124c578180611248906126c8565b9250505b8080611257906126c8565b9150506111cb565b508067ffffffffffffffff81111561127a5761127961202a565b5b6040519080825280602002602001820160405280156112a85781602001602082028036833780820191505090505b5095508067ffffffffffffffff8111156112c5576112c461202a565b5b6040519080825280602002602001820160405280156112f35781602001602082028036833780820191505090505b5094508067ffffffffffffffff8111156113105761130f61202a565b5b60405190808252806020026020018201604052801561133e5781602001602082028036833780820191505090505b5093508067ffffffffffffffff81111561135b5761135a61202a565b5b6040519080825280602002602001820160405280156113895781602001602082028036833780820191505090505b5092508067ffffffffffffffff8111156113a6576113a561202a565b5b6040519080825280602002602001820160405280156113d45781602001602082028036833780820191505090505b509150600080600190505b6003548111611591573373ffffffffffffffffffffffffffffffffffffffff166001600083815260200190815260200160002060040160009054906101000a900473ffffffffffffffffffffffffffffffffffffffff1673ffffffffffffffffffffffffffffffffffffffff160361157e5780888381518110611465576114646120bc565b5b602002602001018181525050600160008281526020019081526020016000206000015487838151811061149b5761149a6120bc565b5b60200260200101818152505060016000828152602001908152602001600020600101548683815181106114d1576114d06120bc565b5b6020026020010181815250506001600082815260200190815260200160002060050160159054906101000a900460ff16858381518110611514576115136120bc565b5b6020026020010190151590811515815250506001600082815260200190815260200160002060050160149054906101000a900460ff1684838151811061155d5761155c6120bc565b5b602002602001019015159081151581525050818061157a906126c8565b9250505b8080611589906126c8565b9150506113df565b5050509091929394565b60008054906101000a900473ffffffffffffffffffffffffffffffffffffffff1673ffffffffffffffffffffffffffffffffffffffff163373ffffffffffffffffffffffffffffffffffffffff1614611629576040517f08c379a00000000000000000000000000000000000000000000000000000000081526004016116209061227c565b60405180910390fd5b6000341161166c576040517f08c379a000000000000000000000000000000000000000000000000000000000815260040161166390612782565b60405180910390fd5b34600260003373ffffffffffffffffffffffffffffffffffffffff1673ffffffffffffffffffffffffffffffffffffffff16815260200190815260200160002060008282546116bb9190612088565b925050819055507fe1fffcc4923d04b559f4d29a8bfc6cda04eb5b0d3c460751c2402c5c5cc9109c33346040516116f39291906123ee565b60405180910390a1565b60016020528060005260406000206000915090508060000154908060010154908060020154908060030154908060040160009054906101000a900473ffffffffffffffffffffffffffffffffffffffff16908060050160009054906101000a900473ffffffffffffffffffffffffffffffffffffffff16908060050160149054906101000a900460ff16908060050160159054906101000a900460ff16905088565b60008054906101000a900473ffffffffffffffffffffffffffffffffffffffff1673ffffffffffffffffffffffffffffffffffffffff163373ffffffffffffffffffffffffffffffffffffffff160361182d576040517f08c379a0000000000000000000000000000000000000000000000000000000008152600401611824906127ee565b60405180910390fd5b60008311801561183d5750600081115b61187c576040517f08c379a00000000000000000000000000000000000000000000000000000000081526004016118739061285a565b60405180910390fd5b6003600081548092919061188f906126c8565b91905055506040518061010001604052808481526020018381526020018281526020014281526020013373ffffffffffffffffffffffffffffffffffffffff168152602001600073ffffffffffffffffffffffffffffffffffffffff168152602001600015158152602001600015158152506001600060035481526020019081526020016000206000820151816000015560208201518160010155604082015181600201556060820151816003015560808201518160040160006101000a81548173ffffffffffffffffffffffffffffffffffffffff021916908373ffffffffffffffffffffffffffffffffffffffff16021790555060a08201518160050160006101000a81548173ffffffffffffffffffffffffffffffffffffffff021916908373ffffffffffffffffffffffffffffffffffffffff16021790555060c08201518160050160146101000a81548160ff02191690831515021790555060e08201518160050160156101000a81548160ff0219169083151502179055509050507ff6cc19e46a340ab5888d736bfc79aef72ae92d12d7b76319d72b0abc170868e660035433858585604051611a4895949392919061287a565b60405180910390a1505050565b600081519050919050565b600082825260208201905092915050565b6000819050602082019050919050565b6000819050919050565b611a9481611a81565b82525050565b6000611aa68383611a8b565b60208301905092915050565b6000602082019050919050565b6000611aca82611a55565b611ad48185611a60565b9350611adf83611a71565b8060005b83811015611b10578151611af78882611a9a565b9750611b0283611ab2565b925050600181019050611ae3565b5085935050505092915050565b600081519050919050565b600082825260208201905092915050565b6000819050602082019050919050565b600073ffffffffffffffffffffffffffffffffffffffff82169050919050565b6000611b7482611b49565b9050919050565b611b8481611b69565b82525050565b6000611b968383611b7b565b60208301905092915050565b6000602082019050919050565b6000611bba82611b1d565b611bc48185611b28565b9350611bcf83611b39565b8060005b83811015611c00578151611be78882611b8a565b9750611bf283611ba2565b925050600181019050611bd3565b5085935050505092915050565b600081519050919050565b600082825260208201905092915050565b6000819050602082019050919050565b60008115159050919050565b611c4e81611c39565b82525050565b6000611c608383611c45565b60208301905092915050565b6000602082019050919050565b6000611c8482611c0d565b611c8e8185611c18565b9350611c9983611c29565b8060005b83811015611cca578151611cb18882611c54565b9750611cbc83611c6c565b925050600181019050611c9d565b5085935050505092915050565b6000610100820190508181036000830152611cf2818b611abf565b90508181036020830152611d06818a611abf565b90508181036040830152611d1a8189611abf565b90508181036060830152611d2e8188611abf565b90508181036080830152611d428187611abf565b905081810360a0830152611d568186611baf565b905081810360c0830152611d6a8185611c79565b905081810360e0830152611d7e8184611c79565b90509998505050505050505050565b600080fd5b611d9b81611a81565b8114611da657600080fd5b50565b600081359050611db881611d92565b92915050565b600060208284031215611dd457611dd3611d8d565b5b6000611de284828501611da9565b91505092915050565b611df481611a81565b82525050565b6000602082019050611e0f6000830184611deb565b92915050565b611e1e81611b69565b8114611e2957600080fd5b50565b600081359050611e3b81611e15565b92915050565b600060208284031215611e5757611e56611d8d565b5b6000611e6584828501611e2c565b91505092915050565b611e7781611c39565b82525050565b6000602082019050611e926000830184611e6e565b92915050565b611ea181611b69565b82525050565b6000602082019050611ebc6000830184611e98565b92915050565b600060a0820190508181036000830152611edc8188611abf565b90508181036020830152611ef08187611abf565b90508181036040830152611f048186611abf565b90508181036060830152611f188185611c79565b90508181036080830152611f2c8184611c79565b90509695505050505050565b6000611f4382611b49565b9050919050565b611f5381611f38565b82525050565b600061010082019050611f6f600083018b611deb565b611f7c602083018a611deb565b611f896040830189611deb565b611f966060830188611deb565b611fa36080830187611f4a565b611fb060a0830186611f4a565b611fbd60c0830185611e6e565b611fca60e0830184611e6e565b9998505050505050505050565b600080600060608486031215611ff057611fef611d8d565b5b6000611ffe86828701611da9565b935050602061200f86828701611da9565b925050604061202086828701611da9565b9150509250925092565b7f4e487b7100000000000000000000000000000000000000000000000000000000600052604160045260246000fd5b7f4e487b7100000000000000000000000000000000000000000000000000000000600052601160045260246000fd5b600061209382611a81565b915061209e83611a81565b92508282019050808211156120b6576120b5612059565b5b92915050565b7f4e487b7100000000000000000000000000000000000000000000000000000000600052603260045260246000fd5b600082825260208201905092915050565b7f496e76616c6964206c6f616e4964000000000000000000000000000000000000600082015250565b6000612132600e836120eb565b915061213d826120fc565b602082019050919050565b6000602082019050818103600083015261216181612125565b9050919050565b600061217382611a81565b915061217e83611a81565b925082820261218c81611a81565b915082820484148315176121a3576121a2612059565b5b5092915050565b7f4e487b7100000000000000000000000000000000000000000000000000000000600052601260045260246000fd5b60006121e482611a81565b91506121ef83611a81565b9250826121ff576121fe6121aa565b5b828204905092915050565b7f4f6e6c7920746865206c656e64657220286465706c6f796572292063616e207060008201527f6572666f726d207468697320616374696f6e0000000000000000000000000000602082015250565b60006122666032836120eb565b91506122718261220a565b604082019050919050565b6000602082019050818103600083015261229581612259565b9050919050565b7f496e73756666696369656e742062616c616e6365000000000000000000000000600082015250565b60006122d26014836120eb565b91506122dd8261229c565b602082019050919050565b60006020820190508181036000830152612301816122c5565b9050919050565b600061231382611a81565b915061231e83611a81565b925082820390508181111561233657612335612059565b5b92915050565b600081905092915050565b50565b600061235760008361233c565b915061236282612347565b600082019050919050565b60006123788261234a565b9150819050919050565b7f5769746864726177616c206661696c6564000000000000000000000000000000600082015250565b60006123b86011836120eb565b91506123c382612382565b602082019050919050565b600060208201905081810360008301526123e7816123ab565b9050919050565b60006040820190506124036000830185611e98565b6124106020830184611deb565b9392505050565b7f4c6f616e20616c72656164792066756e64656400000000000000000000000000600082015250565b600061244d6013836120eb565b915061245882612417565b602082019050919050565b6000602082019050818103600083015261247c81612440565b9050919050565b7f496e73756666696369656e742062616c616e636520746f2066756e6400000000600082015250565b60006124b9601c836120eb565b91506124c482612483565b602082019050919050565b600060208201905081810360008301526124e8816124ac565b9050919050565b7f5472616e7366657220746f20626f72726f776572206661696c65640000000000600082015250565b6000612525601b836120eb565b9150612530826124ef565b602082019050919050565b6000602082019050818103600083015261255481612518565b9050919050565b60006040820190506125706000830185611deb565b61257d6020830184611e98565b9392505050565b7f4c6f616e206d7573742062652066756e64656420616e6420756e706169640000600082015250565b60006125ba601e836120eb565b91506125c582612584565b602082019050919050565b600060208201905081810360008301526125e9816125ad565b9050919050565b7f4f6e6c7920626f72726f7765722063616e207265706179000000000000000000600082015250565b60006126266017836120eb565b9150612631826125f0565b602082019050919050565b6000602082019050818103600083015261265581612619565b9050919050565b7f496e636f72726563742072657061796d656e7420616d6f756e74000000000000600082015250565b6000612692601a836120eb565b915061269d8261265c565b602082019050919050565b600060208201905081810360008301526126c181612685565b9050919050565b60006126d382611a81565b91507fffffffffffffffffffffffffffffffffffffffffffffffffffffffffffffffff820361270557612704612059565b5b600182019050919050565b7f4465706f736974206d7573742062652067726561746572207468616e207a657260008201527f6f00000000000000000000000000000000000000000000000000000000000000602082015250565b600061276c6021836120eb565b915061277782612710565b604082019050919050565b6000602082019050818103600083015261279b8161275f565b9050919050565b7f4c656e6465722063616e6e6f742072657175657374206c6f616e730000000000600082015250565b60006127d8601b836120eb565b91506127e3826127a2565b602082019050919050565b60006020820190508181036000830152612807816127cb565b9050919050565b7f496e76616c6964206c6f616e20706172616d6574657273000000000000000000600082015250565b60006128446017836120eb565b915061284f8261280e565b602082019050919050565b6000602082019050818103600083015261287381612837565b9050919050565b600060a08201905061288f6000830188611deb565b61289c6020830187611e98565b6128a96040830186611deb565b6128b66060830185611deb565b6128c36080830184611deb565b969550505050505056fea26469706673582212200fc71fe8e6aafccb61888fda74bdf98b45bd77b27ead8e7e6a34f5b5dc494d6864736f6c634300081c0033",
  "linkReferences": {},
  "deployedLinkReferences": {}
}