{
  "_format": "hh-sol-artifact-1",
  "contractName": "Microloan",
  "sourceName": "contracts/microloan_dapp.sol",
  "abi": [
    {
      "anonymous": false,
      "inputs": [
        {
          "indexed": false,
          "internalType": "uint256",
          "name": "loanId",
          "type": "uint256"
        },
        {
          "indexed": false,
          "internalType": "address",
          "name": "lender",
          "type": "address"
        }
      ],
      "name": "LoanFunded",
      "type": "event"
    },
    {
      "anonymous": false,
      "inputs": [
        {
          "indexed": false,
          "internalType": "uint256",
          "name": "loanId",
          "type": "uint256"
        },
        {
          "indexed": false,
          "internalType": "address",
          "name": "borrower",
          "type": "address"
        }
      ],
      "name": "LoanRepaid",
      "type": "event"
    },
    {
      "anonymous": false,
      "inputs": [
        {
          "indexed": false,
          "internalType": "uint256",
          "name": "loanId",
          "type": "uint256"
        },
        {
          "indexed": false,
          "internalType": "address",
          "name": "borrower",
          "type": "address"
        },
        {
          "indexed": false,
          "internalType": "uint256",
          "name": "amount",
          "type": "uint256"
        },
        {
          "indexed": false,
          "internalType": "uint256",
          "name": "interestRate",
          "type": "uint256"
        },
        {
          "indexed": false,
          "internalType": "uint256",
          "name": "repaymentPeriod",
          "type": "uint256"
        }
      ],
      "name": "LoanRequested",
      "type": "event"
    },
    {
      "inputs": [
        {
          "internalType": "uint256",
          "name": "_loanId",
          "type": "uint256"
        }
      ],
      "name": "fundLoan",
      "outputs": [],
      "stateMutability": "payable",
      "type": "function"
    },
    {
      "inputs": [
        {
          "internalType": "uint256",
          "name": "_loanId",
          "type": "uint256"
        }
      ],
      "name": "isLoanOverdue",
      "outputs": [
        {
          "internalType": "bool",
          "name": "",
          "type": "bool"
        }
      ],
      "stateMutability": "view",
      "type": "function"
    },
    {
      "inputs": [],
      "name": "loanCounter",
      "outputs": [
        {
          "internalType": "uint256",
          "name": "",
          "type": "uint256"
        }
      ],
      "stateMutability": "view",
      "type": "function"
    },
    {
      "inputs": [
        {
          "internalType": "uint256",
          "name": "",
          "type": "uint256"
        }
      ],
      "name": "loans",
      "outputs": [
        {
          "internalType": "uint256",
          "name": "amount",
          "type": "uint256"
        },
        {
          "internalType": "uint256",
          "name": "interestRate",
          "type": "uint256"
        },
        {
          "internalType": "uint256",
          "name": "repaymentPeriod",
          "type": "uint256"
        },
        {
          "internalType": "uint256",
          "name": "createdAt",
          "type": "uint256"
        },
        {
          "internalType": "address payable",
          "name": "borrower",
          "type": "address"
        },
        {
          "internalType": "address payable",
          "name": "lender",
          "type": "address"
        },
        {
          "internalType": "bool",
          "name": "isRepaid",
          "type": "bool"
        },
        {
          "internalType": "bool",
          "name": "isFunded",
          "type": "bool"
        }
      ],
      "stateMutability": "view",
      "type": "function"
    },
    {
      "inputs": [
        {
          "internalType": "uint256",
          "name": "_loanId",
          "type": "uint256"
        }
      ],
      "name": "repayLoan",
      "outputs": [],
      "stateMutability": "payable",
      "type": "function"
    },
    {
      "inputs": [
        {
          "internalType": "uint256",
          "name": "_amount",
          "type": "uint256"
        },
        {
          "internalType": "uint256",
          "name": "_interestRate",
          "type": "uint256"
        },
        {
          "internalType": "uint256",
          "name": "_repaymentPeriod",
          "type": "uint256"
        }
      ],
      "name": "requestLoan",
      "outputs": [],
      "stateMutability": "nonpayable",
      "type": "function"
    }
  ],
  "bytecode": "0x6080604052348015600f57600080fd5b5060016000819055506112d0806100276000396000f3fe6080604052600436106100555760003560e01c806334d9289e1461005a5780633b49860214610085578063846b909a146100c2578063ab7b1c89146100de578063e1ec3c68146100fa578063edadbbfe1461013e575b600080fd5b34801561006657600080fd5b5061006f610167565b60405161007c9190610a5a565b60405180910390f35b34801561009157600080fd5b506100ac60048036038101906100a79190610aa6565b61016d565b6040516100b99190610aee565b60405180910390f35b6100dc60048036038101906100d79190610aa6565b6101df565b005b6100f860048036038101906100f39190610aa6565b61043c565b005b34801561010657600080fd5b50610121600480360381019061011c9190610aa6565b6106d3565b604051610135989796959493929190610b4a565b60405180910390f35b34801561014a57600080fd5b5061016560048036038101906101609190610bc8565b610775565b005b60025481565b6000806001600084815260200190815260200160002090508060050160159054906101000a900460ff1615806101b157508060050160149054906101000a900460ff165b156101c05760009150506101da565b806002015481600301546101d49190610c4a565b42119150505b919050565b6101e76109e8565b60006001600083815260200190815260200160002090508060050160159054906101000a900460ff1615610250576040517f08c379a000000000000000000000000000000000000000000000000000000000815260040161024790610cdb565b60405180910390fd5b3373ffffffffffffffffffffffffffffffffffffffff168160040160009054906101000a900473ffffffffffffffffffffffffffffffffffffffff1673ffffffffffffffffffffffffffffffffffffffff16036102e2576040517f08c379a00000000000000000000000000000000000000000000000000000000081526004016102d990610d6d565b60405180910390fd5b80600001543414610328576040517f08c379a000000000000000000000000000000000000000000000000000000000815260040161031f90610dd9565b60405180910390fd5b338160050160006101000a81548173ffffffffffffffffffffffffffffffffffffffff021916908373ffffffffffffffffffffffffffffffffffffffff16021790555060018160050160156101000a81548160ff0219169083151502179055508060040160009054906101000a900473ffffffffffffffffffffffffffffffffffffffff1673ffffffffffffffffffffffffffffffffffffffff166108fc82600001549081150290604051600060405180830381858888f193505050501580156103f6573d6000803e3d6000fd5b507f15feab5d3eb17171632762cf769709a315dd15f487a556c0dfb8a259c8f186cc8233604051610428929190610e1a565b60405180910390a150610439610a37565b50565b6104446109e8565b60006001600083815260200190815260200160002090508060050160159054906101000a900460ff166104ac576040517f08c379a00000000000000000000000000000000000000000000000000000000081526004016104a390610e8f565b60405180910390fd5b8060050160149054906101000a900460ff16156104fe576040517f08c379a00000000000000000000000000000000000000000000000000000000081526004016104f590610efb565b60405180910390fd5b8060040160009054906101000a900473ffffffffffffffffffffffffffffffffffffffff1673ffffffffffffffffffffffffffffffffffffffff163373ffffffffffffffffffffffffffffffffffffffff1614610590576040517f08c379a000000000000000000000000000000000000000000000000000000000815260040161058790610f67565b60405180910390fd5b60006064826001015483600001546105a89190610f87565b6105b29190610ff8565b82600001546105c19190610c4a565b9050803414610605576040517f08c379a00000000000000000000000000000000000000000000000000000000081526004016105fc90611075565b60405180910390fd5b60018260050160146101000a81548160ff0219169083151502179055508160050160009054906101000a900473ffffffffffffffffffffffffffffffffffffffff1673ffffffffffffffffffffffffffffffffffffffff166108fc349081150290604051600060405180830381858888f1935050505015801561068c573d6000803e3d6000fd5b507fe69d7686a8bc68278b8c5419579f91716b3ef2ac2fac0d8cf80b8011f8f458a483336040516106be929190610e1a565b60405180910390a150506106d0610a37565b50565b60016020528060005260406000206000915090508060000154908060010154908060020154908060030154908060040160009054906101000a900473ffffffffffffffffffffffffffffffffffffffff16908060050160009054906101000a900473ffffffffffffffffffffffffffffffffffffffff16908060050160149054906101000a900460ff16908060050160159054906101000a900460ff16905088565b600083116107b8576040517f08c379a00000000000000000000000000000000000000000000000000000000081526004016107af906110e1565b60405180910390fd5b600081116107fb576040517f08c379a00000000000000000000000000000000000000000000000000000000081526004016107f290611173565b60405180910390fd5b600062278d008261080c9190610f87565b90506002600081548092919061082190611193565b91905055506040518061010001604052808581526020018481526020018281526020014281526020013373ffffffffffffffffffffffffffffffffffffffff168152602001600073ffffffffffffffffffffffffffffffffffffffff168152602001600015158152602001600015158152506001600060025481526020019081526020016000206000820151816000015560208201518160010155604082015181600201556060820151816003015560808201518160040160006101000a81548173ffffffffffffffffffffffffffffffffffffffff021916908373ffffffffffffffffffffffffffffffffffffffff16021790555060a08201518160050160006101000a81548173ffffffffffffffffffffffffffffffffffffffff021916908373ffffffffffffffffffffffffffffffffffffffff16021790555060c08201518160050160146101000a81548160ff02191690831515021790555060e08201518160050160156101000a81548160ff0219169083151502179055509050507ff6cc19e46a340ab5888d736bfc79aef72ae92d12d7b76319d72b0abc170868e6600254338686866040516109da9594939291906111db565b60405180910390a150505050565b600260005403610a2d576040517f08c379a0000000000000000000000000000000000000000000000000000000008152600401610a249061127a565b60405180910390fd5b6002600081905550565b6001600081905550565b6000819050919050565b610a5481610a41565b82525050565b6000602082019050610a6f6000830184610a4b565b92915050565b600080fd5b610a8381610a41565b8114610a8e57600080fd5b50565b600081359050610aa081610a7a565b92915050565b600060208284031215610abc57610abb610a75565b5b6000610aca84828501610a91565b91505092915050565b60008115159050919050565b610ae881610ad3565b82525050565b6000602082019050610b036000830184610adf565b92915050565b600073ffffffffffffffffffffffffffffffffffffffff82169050919050565b6000610b3482610b09565b9050919050565b610b4481610b29565b82525050565b600061010082019050610b60600083018b610a4b565b610b6d602083018a610a4b565b610b7a6040830189610a4b565b610b876060830188610a4b565b610b946080830187610b3b565b610ba160a0830186610b3b565b610bae60c0830185610adf565b610bbb60e0830184610adf565b9998505050505050505050565b600080600060608486031215610be157610be0610a75565b5b6000610bef86828701610a91565b9350506020610c0086828701610a91565b9250506040610c1186828701610a91565b9150509250925092565b7f4e487b7100000000000000000000000000000000000000000000000000000000600052601160045260246000fd5b6000610c5582610a41565b9150610c6083610a41565b9250828201905080821115610c7857610c77610c1b565b5b92915050565b600082825260208201905092915050565b7f4c6f616e20616c72656164792066756e64656400000000000000000000000000600082015250565b6000610cc5601383610c7e565b9150610cd082610c8f565b602082019050919050565b60006020820190508181036000830152610cf481610cb8565b9050919050565b7f426f72726f7765722063616e6e6f742066756e64207468656972206f776e206c60008201527f6f616e0000000000000000000000000000000000000000000000000000000000602082015250565b6000610d57602383610c7e565b9150610d6282610cfb565b604082019050919050565b60006020820190508181036000830152610d8681610d4a565b9050919050565b7f496e636f72726563742066756e64696e6720616d6f756e740000000000000000600082015250565b6000610dc3601883610c7e565b9150610dce82610d8d565b602082019050919050565b60006020820190508181036000830152610df281610db6565b9050919050565b6000610e0482610b09565b9050919050565b610e1481610df9565b82525050565b6000604082019050610e2f6000830185610a4b565b610e3c6020830184610e0b565b9392505050565b7f4c6f616e206e6f742066756e6465640000000000000000000000000000000000600082015250565b6000610e79600f83610c7e565b9150610e8482610e43565b602082019050919050565b60006020820190508181036000830152610ea881610e6c565b9050919050565b7f4c6f616e20616c72656164792072657061696400000000000000000000000000600082015250565b6000610ee5601383610c7e565b9150610ef082610eaf565b602082019050919050565b60006020820190508181036000830152610f1481610ed8565b9050919050565b7f4f6e6c7920626f72726f7765722063616e207265706179000000000000000000600082015250565b6000610f51601783610c7e565b9150610f5c82610f1b565b602082019050919050565b60006020820190508181036000830152610f8081610f44565b9050919050565b6000610f9282610a41565b9150610f9d83610a41565b9250828202610fab81610a41565b91508282048414831517610fc257610fc1610c1b565b5b5092915050565b7f4e487b7100000000000000000000000000000000000000000000000000000000600052601260045260246000fd5b600061100382610a41565b915061100e83610a41565b92508261101e5761101d610fc9565b5b828204905092915050565b7f496e636f72726563742072657061796d656e7420616d6f756e74000000000000600082015250565b600061105f601a83610c7e565b915061106a82611029565b602082019050919050565b6000602082019050818103600083015261108e81611052565b9050919050565b7f416d6f756e74206d7573742062652067726561746572207468616e207a65726f600082015250565b60006110cb602083610c7e565b91506110d682611095565b602082019050919050565b600060208201905081810360008301526110fa816110be565b9050919050565b7f52657061796d656e7420706572696f64206d75737420626520706f736974697660008201527f6500000000000000000000000000000000000000000000000000000000000000602082015250565b600061115d602183610c7e565b915061116882611101565b604082019050919050565b6000602082019050818103600083015261118c81611150565b9050919050565b600061119e82610a41565b91507fffffffffffffffffffffffffffffffffffffffffffffffffffffffffffffffff82036111d0576111cf610c1b565b5b600182019050919050565b600060a0820190506111f06000830188610a4b565b6111fd6020830187610e0b565b61120a6040830186610a4b565b6112176060830185610a4b565b6112246080830184610a4b565b9695505050505050565b7f5265656e7472616e637947756172643a207265656e7472616e742063616c6c00600082015250565b6000611264601f83610c7e565b915061126f8261122e565b602082019050919050565b6000602082019050818103600083015261129381611257565b905091905056fea2646970667358221220109e66a1583e3ab945744afeb1d0b55ab63e2abb32672b850f5bbe7cbb6242a064736f6c634300081c0033",
  "linkReferences": {},
  "deployedLinkReferences": {}
}